:100000008FC00000AAC00000A8C00000A6C0000069
:10001000A4C00000A2C00000A0C000009EC000005C
:100020009CC000009AC0000098C0000005C60000F7
:1000300094C0000092C0000090C000008EC000007C
:100040008CC000008AC0000088C0000086C000008C
:1000500084C0000082C0000080C00000A1C0000079
:100060007CC000007AC0000078C0000076C00000AC
:1000700074C0000072C0000070C000006EC00000BC
:100080006CC000006AC0000068C0000066C00000CC
:1000900064C0000062C000001201000202000020E3
:1000A000EB031820001000000001090243000201C8
:1000B0000080320904000001020201000524001042
:1000C000010524010301042402060524060001079A
:1000D0000583032000FF09040100020A0000000755
:1000E000058102200000070502022000000C0341E8
:1000F0000054004D0045004C0022034100560052C0
:1001000000200055005300420020004300440043FB
:10011000002000440045004D004F00040309040086
:1001200011241FBECFEFD4E0DEBFCDBF81E011E0D0
:10013000A0E0B1E0E8E9F1E102C005900D92A6303F
:10014000B107D9F711E0A6E0B1E001C01D92AC33D0
:10015000B107E1F713D00C94CA0852CF8FB7F894C7
:1001600097EF94BF98E10FB6F894909360001092C7
:1001700060000FBE87FF01C078940895E3E6F0E0C9
:1001800080818E7F8083EADF549A5C9A92D080E0EF
:1001900090E00895809121018F5F8093210108955F
:1001A0001F920F920FB60F9211241F932F933F931C
:1001B0004F935F936F937F938F939F93AF93BF936F
:1001C000EF93FF934C9A80912C018823D9F01091E2
:1001D000E90081E08093E90060E08091C80087FF3A
:1001E00008C0E62FF0E08091CE00EA5EFE4F8083EB
:1001F0006F5F8091E80085FFF0CF86E191E0BBD092
:100200001093E900FF91EF91BF91AF919F918F9172
:100210007F916F915F914F913F912F911F910F901F
:100220000FBE0F901F90189580912C018823F1F03C
:100230008091200180FF1AC08091C80085FF0FC007
:1002400058D0882341F40BC04C9A77D0992787FD6A
:10025000909546D04D9A809124018823A9F78091EA
:100260000801813019F4109208014C9A089523D0A6
:10027000E9ECF0E08081806880838AB183638AB989
:100280008BB18C7C8BB984B18E7084B985B1816F50
:1002900085B95798E2EEF0E080818460808385EF35
:1002A00091E06DE971E0F4C5CDD5BEDFFDCFCCD5D1
:1002B000DECFFDDFF9CF87E690E09093CD0080930D
:1002C000CC00E8ECF0E080818260808386E080935F
:1002D000CA00E9ECF0E080818861808381E00895C4
:1002E000282F8091C80085FFFCCF2093CE00822F5D
:1002F000089580912C018823F9F0809124018823AE
:10030000B9F482E08093E9008091E80082FF10C098
:100310008091F20080932401882351F48091E800B9
:100320008B7F8093E8008091E8008F778093E800CE
:1003300080912401811181E0089582E08093E90099
:1003400080912401882311F4D4DFFCCF9091F10037
:1003500080912401815080932401882351F480915D
:10036000E8008B7F8093E8008091E8008F7780938E
:10037000E800892F0895FC0180912C018823A1F1C8
:1003800081E08093E900262F19C08091E80085FF65
:10039000FCCF04C081918093F10021508091E8004E
:1003A00085FF02C02223B1F78091E8008E7F809301
:1003B000E8008091E8008F778093E800222329F7F6
:1003C000862F90E08F719070892B71F48091E800F6
:1003D00085FFFCCF8091E8008E7F8093E8008091BC
:1003E000E8008F778093E8000895DF93CF9300D0E3
:1003F000CDB7DEB79A838983CE01019661E0BBDF7A
:1004000089819A810F900F90CF91DF910895E8ED47
:10041000F0E080818F778083808180688083089579
:100420008091D80080628093D80082E089BD09B4B1
:1004300000FEFDCFF8948091D8008F7D8093D80086
:100440008091E0008E7F8093E0008091E0008B7FC0
:100450008093E0004AD08091E20081608093E200C6
:100460008091E20088608093E20078940895809102
:100470000601882321F481E080930601D1DF809179
:100480000D0190910E0190FF10C080910D0190918F
:100490000E019E7F90930E0180930D0181E0809369
:1004A000EA001092EA0010922C011092E90080916B
:1004B000E80083FF01C077C108959091EB0091603F
:1004C0009093EB008093EC008091ED008270862B7E
:1004D0008093ED008091ED0082608093ED0080912B
:1004E000EE00881F8827881F08951092E9008091E8
:1004F000EB0080FF02C080E008951092E90082E0E6
:1005000060E2DBCF80E00895009799F483E0809368
:10051000E9008091EB0080618093EB0088E080939C
:10052000EA001092EA008091EB0088608093EB0073
:100530000895019719F581E08093E9008091EB001F
:1005400080618093EB0092E09093EA001092EA00C1
:100550008091EB0088608093EB009093E90080919C
:10056000EB0080618093EB0084E08093EA001092BE
:10057000EA008091EB0088608093EB00089583305F
:1005800069F4662359F484E080932D018BE191E0B6
:1005900090932F0180932E0181E0089580E00895CB
:1005A0008091E800877F8093E80080910F0180931D
:1005B000F100809110018093F100809111018093EE
:1005C000F100809112018093F100809113018093DA
:1005D000F100809114018093F100809115018093C6
:1005E000F1008091E8008E7F8093E8008091E80020
:1005F00080FFFCCF8091E80082FFFCCF8091E80073
:100600008B7F8093E8008091E8008F778093E800EB
:1006100008958091E800877F8093E8008091E8004A
:1006200082FFFCCF8091F10080930F018091F10057
:10063000809310018091F100809311018091F1006D
:10064000809312018091F100809313018091F10059
:10065000809314018091F100809315018091E8004E
:100660008B7F8093E8008091E8008F778093E8008B
:100670008091E8008E7F8093E8008091E80080FF01
:10068000FCCF20910F013091100140911101509148
:100690001201569547953795279584E0220F331F11
:1006A000441F551F8A95D1F760E072E18AE790E018
:1006B000CDD3215030403093CD002093CC0008950D
:1006C0009091E800977F9093E8009091E8009E7FDA
:1006D0009093E800809320018091E80080FFFCCF98
:1006E00008958091E800877F8093E8008091E8007A
:1006F0008E7F8093E80081E0809308018091E8007C
:1007000080FFFCCF0895DF93CF9300D0CDB7DEB745
:100710002091F1009091F100813291F429839A8324
:10072000623231F0633241F0603289F472DF0DC021
:1007300089819A81C5DF09C089819A81D2DF05C08C
:10074000813A29F4613219F42BDF81E001C080E0A5
:100750000F900F90CF91DF910895FF920F931F9309
:1007600009EE10E083E0F801808381EC60E2A5DE11
:1007700081E0F801808381E860E29FDE22E0F22ED2
:10078000F801F08280E860E298DEEAEEF0E088E0CE
:1007900080831082F082108284E0808310821F9117
:1007A0000F91FF9008950F931F93DF93CF9300D085
:1007B000CDB7DEB78091E8008B7F8093E800109181
:1007C000F1000091F1000630F9F0073068F40130D3
:1007D00009F413C1013008F480C1033009F441C1A8
:1007E000053009F0F5C1D2C0093009F4EFC00A3074
:1007F00020F4083009F0ECC1A4C00A3009F4A3C108
:100800000B3009F0E5C1C2C1103809F0E1C16091B7
:10081000F1008091F100813019F0823089F406C036
:1008200082E180932D0188E990E005C083E4809304
:100830002D018AEA90E090932F0180932E0104C04D
:100840009EDE882309F4C4C18091F1008091F100FB
:100850008091F10089838091F1008A838091E80082
:10086000877F8093E80029813A8180912D0190E073
:100870008217930730F48F719070892B21F461E017
:1008800003C020932D0160E08091E8008F7E80936B
:10089000E80020912E0130912F0140912D0122C0BE
:1008A0008091E80084FF03C0F90190E00FC08091BF
:1008B000E80080FFF5CFF8CF542F5150903249F027
:1008C0009F5F84918093F1003196452F9F014423CF
:1008D00099F78091E80084FD12C08091E8008E7F36
:1008E0008093E800442339F420932E0130932F01A4
:1008F00010922D010AC08091E80084FFD8CF209388
:100900002E0130932F0140932D01613069F48091C5
:10091000E80084FD09C08091E80080FFFCCF809151
:10092000E8008E7F8093E8008091E80084FFFCCF90
:100930008091E8008F7E8093E8008091E8008B7FB3
:1009400022C0103809F044C18091E800877F80936D
:10095000E80080912C018093F1008091E8008E7F67
:100960008093E8008091E8008F778093E800809181
:10097000E80082FFFCCF8091E8008B7F8093E80045
:100980008091E8008F778093E80034C1112309F04B
:100990001FC19091F1008091E3009F778078982BA0
:1009A0009093E3008091E800877F8093E800809136
:1009B000E8008E7F8093E8008091E80080FFFCCF04
:1009C0008091E30080688093E30014C1112309F053
:1009D000FFC09091F100923008F0FAC08091E800D9
:1009E000877F8093E80090932C018091E8008E7FB0
:1009F0008093E800892FB1DEFDC01123C1F11230D0
:100A000009F0E6C08091F1009091F100882309F08F
:100A1000DFC0E091F100EF77E093E9008091EB0017
:100A200080FF43C0EE23B1F08091EB0080618093A2
:100A3000EB0081E090E00E2E02C0880F991F0A940F
:100A4000E2F78093EA001092EA008091EB00886060
:100A50008093EB001092E900F0E0EB5DFE4F108216
:100A600033C0112321F0123009F0B2C003C08091CD
:100A7000F100AEC08091F1009091F100882309F05F
:100A8000A7C0E091F100EF7751F48091EB00806214
:100A90008093EB008091E800877F8093E800E093EB
:100AA000E9008091EB0080FD03C01092E90090C046
:100AB0008091EB0080628093EB001092E900F0E0FF
:100AC000EB5DFE4F81E080838091E800877F80931B
:100AD000E8008091E8008E7F56CF8091F1008091F0
:100AE000F100E091F100113869F0123899F01038F6
:100AF00009F06EC08091E800877F8093E8008091C4
:100B00000C0113C08091E800877F8093E800109269
:100B1000F1000DC08091E800877F8093E800F0E04D
:100B2000EF77F070EB5DFE4F80818093F1001092C3
:100B3000F1008091E8008E7F8093E8008091E800CA
:100B400082FFFCCF18CF113809F042C08091F1002C
:100B50008091F1009091F10099839091F1009A8336
:100B60008823B1F58091E800877F8093E800898130
:100B70009A81C8DC8093F1008091E8008E7F809399
:100B8000E8008091E80082FFFCCFF5CE113001F53E
:100B90006091F1008091F1009091F1009983909122
:100BA000F1009A838823A1F48091E800877F8093E5
:100BB000E80089819A81A8DC1092E9008091E80020
:100BC0008E7F8093E8008091E80080FFFCCF12C008
:100BD000812F602F98DD882369F48091EB0080627B
:100BE0008093EB008091E800877F8093E80081E0AC
:100BF000809325010F900F90CF91DF911F910F915E
:100C00000895282F16C0109231011092300109C0AA
:100C10008091300190913101019690933101809340
:100C200030018091300190913101845F914080F3D7
:100C30002150222341F708951F920F920FB60F9271
:100C400011242F933F934F935F936F937F938F93D1
:100C50009F93AF93BF93EF93FF938091E10082FF47
:100C600008C08091E20082FF04C08BEF8093E10016
:100C700091DA8091E10080FF29C08091E20080FF3D
:100C800025C081E0809307018FEE8093E100809181
:100C90000D0190910E01806290930E0180930D01E1
:100CA0008EEF8093E1008091E20080618093E2000A
:100CB0008091E2008F7D8093E2008091D800806275
:100CC0008093D80089B58D7F89BD19BC8091E100E2
:100CD00084FF72C08091E20084FF6EC009B400FC02
:100CE00005C082E089BD09B400FEFDCF8091D80027
:100CF0008F7D8093D8008FEE8093E1008091070173
:100D0000882309F459C08091E20080628093E20058
:100D10008091E20088608093E2009FEE02C0909391
:100D2000E1008091E10084FDFACF82E06ADF8091EA
:100D3000E10082FD08C08091E10085FD04C0809142
:100D4000E10083FF1CC08091E2008F7E8093E2006F
:100D500080910D0190910E01806490930E0180931B
:100D60000D018091E20081608093E2008091E200B9
:100D700080628093E2008091E20088601BC08091D5
:100D8000E10084FD4EC08091FB008F7D8093FB00CD
:100D90008091FB0080688093FB008091FB008F7B3B
:100DA0008093FB008091FB008F738093FB00809108
:100DB000E2008F7E8093E2008091E10085FF1CC0FD
:100DC0008091E20085FF18C0109207018091E20037
:100DD0008F7E8093E2008FED8093E1008091E200AE
:100DE0008F7D8093E20080910D0190910E018068CB
:100DF00090930E0180930D018091E10083FF11C05B
:100E00008091E20083FF0DC087EF8093E1006DDBEE
:100E100080910D0190910E01916090930E0180934D
:100E20000D01FF91EF91BF91AF919F918F917F91B4
:100E30006F915F914F913F912F910F900FBE0F9047
:100E40001F90189514CB0895E2CA0895A1E21A2EB6
:100E5000AA1BBB1BFD010DC0AA1FBB1FEE1FFF1F5E
:100E6000A217B307E407F50720F0A21BB30BE40BAE
:100E7000F50B661F771F881F991F1A9469F76095F5
:100E80007095809590959B01AC01BD01CF010895AF
:100E90000F931F93CF93DF938C01EB01009731F4F5
:100EA0006115710519F420E030E037C081E090E071
:100EB0006EE070E038D0FC019C01009771F180E891
:100EC0008383209771F0D387C28781E883838091E1
:100ED000320190913301892B21F4F0933301E09397
:100EE000320101151105C9F01187008783818260E5
:100EF00083838091340190913501892B71F4F093B3
:100F00003501E09334018091360190913701892BAE
:100F100021F4F0933701E0933601C901DF91CF91BD
:100F20001F910F9108950F931F93CF93DF939C010F
:100F3000CB01B9011DD1182F092F0ED0EC0100975C
:100F400029F060E070E0412F502F0BD1CE01DF91EE
:100F5000CF911F910F910895CF93DF93BC01823001
:100F6000910510F462E070E0A0913A01B0913B016C
:100F7000ED01E0E0F0E040E050E021C0888199819F
:100F80008617970769F48A819B81309719F09383BC
:100F9000828304C090933B0180933A01FE0134C0E8
:100FA0006817790738F44115510519F0841795072A
:100FB00008F4AC01FE018A819B819C01E901209724
:100FC000E9F641155105A9F1CA01861B970B049753
:100FD00008F4BA01E0E0F0E02AC08D919C911197ED
:100FE00084179507F9F46417750781F412968D91AB
:100FF0009C911397309719F09383828304C0909348
:101000003B0180933A01FD0132964FC0CA01861B15
:10101000970BFD01E80FF91F6193719302978D9370
:101020009C9343C0FD01828193819C01D90110975B
:10103000A1F68091380190913901892B41F480917A
:1010400002019091030190933901809338014091FE
:101050000401509105014115510541F44DB75EB7AA
:101060008091000190910101481B590B209138019A
:101070003091390124173507B0F4CA01821B930B54
:101080008617970780F0AB014E5F5F4F8417950777
:1010900050F0420F531F5093390140933801F9012A
:1010A0006193719302C0E0E0F0E0CF01DF91CF9156
:1010B0000895CF93DF93009709F450C0EC01229775
:1010C0001B821A82A0913A01B0913B01109709F15D
:1010D00040E050E0AC17BD0708F1BB83AA83FE01D6
:1010E00021913191E20FF31FAE17BF0779F48D9173
:1010F0009C911197280F391F2E5F3F4F398328830A
:1011000012968D919C9113979B838A83411551056B
:1011100071F4D0933B01C0933A0120C012968D9197
:101120009C911397AD01009711F0DC01D3CFFA0128
:10113000D383C28321913191E20FF31FCE17DF07D2
:1011400069F488819981280F391F2E5F3F4FFA017A
:10115000318320838A819B8193838283DF91CF9126
:101160000895DC0101C06D9341505040E0F70895AF
:101170005527002480FF02C0060E571F660F771FF9
:101180006115710521F096958795009799F7952F30
:08119000802D0895F894FFCFB3
:0611980020003C010000F4
:00000001FF
