S01A00006D65676133326D315F62656D665F626C64632E7372656380
S11300000C9475010C94EC070C94C8070C94A40789
S11300100C9492010C9492010C9492010C94920110
S11300200C9492010C9492010C9492010C94920100
S11300300C9451080C9410080C9492010C941E0A10
S11300400C9492010C9492010C9492010C949201E0
S11300500C9492010C9492010C9492010C949201D0
S11300600C9492010C9492010C9492010C94BF0292
S11300700C9492010C9492010C9492014B05DC03B4
S1130080DC03DC03DC03DC03DC03DC03DC03DC0374
S113009027050305DC031505DC03DC03DC03DC03B3
S11300A0DC03DC03DC03DC03DC03DC03DC03DC0354
S11300B0DC03DC03DC03DC03DC039804DC03DC0387
S11300C0DC0377059004DC03DC03DC03DC03EF04CE
S11300D0DC03DC03DC03DC03DC03DC03DC03DC0324
S11300E06E045E05DC03DC03DC03DC03DC03DC03FD
S11300F0DC03DC03DC03DC03DC033905DC03DC03A5
S1130100DC036C058804DC03DC03DC03DC03D604B9
S1130110DC03DC03C604DC03DC03DC03CE04DC0305
S11301205B048104DC03DC036505434F4153542025
S113013072656C65617365642E0D0A00434F41530B
S113014054206163746976617465642E0D0A0053EA
S1130150435245462028293A00534554504F494EAE
S1130160543A000D0A00202F205345543A200052DF
S1130170504D3A20000D0A0050574D3A20000D0A08
S11301800050574D3A20000D0A0044454C41593A5D
S113019020000D0A0044454C41593A20004469733B
S11301A061626C6520414320696E7465727275707A
S11301B074732E0D0A00456E61626C652041432004
S11301C0696E74657272757074732E0D0A00466FD1
S11301D0726365207374617465204D435F505245AA
S11301E04C4F434B4544312E0D0A00466F726365F4
S11301F0207374617465204D435F4C4F434B4544F9
S11302002E0D0A00202853686F7274636972637537
S11302106974290D0A004447313A20002028566F9A
S11302206C74616765290D0A004447323A20002046
S1130230284F76657274656D706572617475726548
S1130240290D0A004447333A2000444542554720CB
S11302506F66660D0A004445425547206F6E0D0ACD
S11302600053544F500D0A0052554E2028636F75A9
S11302706E746572636C6F636B77697365290D0ABD
S11302800052554E2028636C6F636B776973652940
S11302900D0A004552520D0A000D0A004E45572022
S11302A053435245563A000D0A004E4557205350C9
S11302B04545443A000D0A000D0A41544D454C2071
S11302C0415441363834342D444B2044656D6F6EAF
S11302D073747261746F722000FF050301060402D7
S11302E0FFFF030602050104FF0011241FBECFEF28
S11302F0D8E0DEBFCDBF11E0A0E0B1E0E0ECF4E176
S113030002C005900D92A632B107D9F712E0A6E219
S1130310B1E001C01D92A330B107E1F70E9466036A
S11303200C945E0A0C940000FC0110821182089562
S1130330FC01218130E08081281B31092F77307046
S1130340822F932F0895DC0111968C911197FD0152
S1130350E80FF11D62838F5F8F7711968C93089558
S1130360DC019C91FD01E90FF11D82819F5F9F7764
S11303709C9308958CE291E00E949801892B51F09E
S11303808091C90081FF06C08CE291E00E94B00117
S11303908093D2000895E8ECF0E090818081877F1B
S11303A0808388E88093CC001092CE008FEC8093F9
S11303B0CD0090838FE080838FEF8093D2008CE216
S11303C091E00E9494010895682F8CE291E00E94CC
S11303D0A30108958091C900817008950E94EA01E3
S11303E08823E1F38091D2000895CF93DF93EC0149
S11303F08881882331F00E94E40121968881882332
S1130400D1F7DF91CF910895CF93DF93EC01FC01F5
S11304108491882339F00E94E4012196FE0184919D
S11304208823C9F7DF91CF910895EF92FF920F933C
S11304301F93DF93CF9300D000D000D0CDB7DEB7A9
S11304409C01009721F480E30E94E40138C0DE019E
S11304501196E1E1F1E086E001900D928150E1F71F
S1130460EE24FF248E010F5F1F4FF801EE0DFF1DD8
S1130470C9016AE070E00E944A0A80830894E11C82
S1130480F11CC9016AE070E00E944A0A862F972F86
S11304909C012115310549F71E141F0484F48E01B3
S11304A00E0D1F1D0894E108F108F8018081805D9C
S11304B00E94E401015010401E141F049CF3269670
S11304C00FB6F894DEBF0FBECDBFCF91DF911F9161
S11304D00F91FF90EF900895109226010895FC016A
S11304E0108215820895DC01909179008C91FD01B0
S11304F0E80FF11D91838F5F83708C930895FC0145
S11305002281818190E0820F911D2381820F911DB0
S11305102481820F911D96958795969587950895C8
S1130520EF92FF920F931F937C010EEA11E0C80132
S11305300E947F02F7018083C80106960E947F0211
S1130540F7018183C8010C960E947F02F701828320
S1130550C80142960E947F02F70183831F910F9185
S1130560FF90EF90089580912601843028F4EAE703
S1130570F0E08081806480838091260108951F9239
S11305800F920FB60F9211242F933F934F935F93C3
S11305906F937F938F939F93AF93BF93EF93FF9347
S11305A08091260126E0829FC001112482559E4F2E
S11305B00E94730280912601843028F480912601E0
S11305C08F5F80932601FF91EF91BF91AF919F912F
S11305D08F917F916F915F914F913F912F910F90E8
S11305E00FBE0F901F9018950F931F93ECE7F0E048
S11305F080818F6E8083EAE7F0E080818E6880835B
S1130600EBE7F0E080818083EFE7F0E080818360B6
S11306108083E6E7F0E08081806980830EEA11E060
S1130620C8010E946F02C80106960E946F02C801A9
S11306300C960E946F02C80142960E946F021F919D
S11306400F910895CF93DF9344E250E088E0EA01EC
S1130650888365E270E0FB01808188608083AAE280
S1130660B0E08C9182608C932BE230E0E9018881C8
S11306708D7F8883E7E2F0E08081817F8083EA01D7
S11306808881836C88838081816080838C91816080
S11306908C93FB0180818D738083E9018881816063
S11306A08883E8E2F0E0808181608083FB018081BF
S11306B081608083DF91CF910895E5E2F0E080814D
S11306C08068808380818F77808308952F923F9202
S11306D04F925F926F927F928F929F92AF92BF924E
S11306E0CF92DF92EF92FF920F931F93CF93DF93FA
S11306F00E9422030E945D03E4E2F0E080818061B5
S11307008083E5E2F0E080818F7E80830E94F402A2
S1130710EAE7F0E08081806480830E94CB0188EB6B
S113072092E00E94040288E191E00E94F50185EBC9
S113073092E00E9404020E94DB050E94A5090E9427
S11307402B0686EC91E00E94FE09E1E8F0E080814E
S113075083608083789480EA9FE09093C9018093BA
S1130760C80100E0EE24FF24C6ECD1E00F2EFAE22B
S1130770CF2EF1E0DF2EF02D0F2EFCE3AF2EF1E0B3
S1130780BF2EF02D0F2EFFE48F2EF1E09F2EF02DC3
S11307900F2EF9E56F2EF1E07F2EF02D0F2EFFE6E0
S11307A04F2EF1E05F2EF02D0F2EF6E62F2EF1E006
S11307B03F2EF02D01C000E00E94BA01888199818A
S11307C0892BB9F488E290E0998388830E94F50824
S11307D00E949505853039F4E5E2F0E0808180617E
S11307E08083E08106C0E5E2F0E080818F7E808333
S11307F0E0810E94FD090E94EA018823E9F20E9437
S1130800EE01182F002309F446C00E94E4011D30B4
S113081039F58AE00E94E401013019F0023059F6FA
S113082010C08AEA92E00E940402C7010E941502E5
S1130830C7010E94B50587EA92E00E94040200E025
S1130840BBCF8CE992E00E940402C7010E9415020A
S1130850E092920089E992E00E94040200E0ACCFA9
S1130860812F80538A3088F4C701880F991F97011C
S1130870220F331F220F331F220F331F820F931FA8
S1130880C0977C01E10EF11C06C083E992E00E944E
S1130890040200E091CF812F90E0FC01B097E7358E
S11308A0F10508F089CFE25CFF4FEE0FFF1F0590C2
S11308B0F491E02D099481E892E00E9404020E94E0
S11308C006070E942B060E94A209E5E2F0E080815F
S11308D08860808380E00E94D3066ECF88E692E031
S11308E00E9404020E9406070E942B060E94A2098D
S11308F0E5E2F0E080818860808381E00E94D30695
S11309005BCF81E692E00E9404020E94060754CF66
S113091086E592E00E94040281E00E9492054CCF99
S11309208AE492E00E94040280E00E94920544CF8F
S113093084E492E00E940402339902C080E301C07F
S113094081E30E94E4018FE292E00E94040289E2C2
S113095092E00E940402329902C080E301C081E364
S11309600E94E4018CE192E00E94040286E192E09C
S11309700E940402319902C080E301C081E30E9415
S1130980E40184E092E00E94040216CF8BEE91E031
S11309900E94040285E00E9498050ECF8EEC91E03F
S11309A00E94040282E00E94980506CF86EB91E043
S11309B00E940402E0E5F0E0808180678083E4E93E
S11309C0F0E0808180648083E5E9F0E080818064E8
S11309D08083E6E9F0E0808180648083EDCE8DE958
S11309E091E00E940402E4E9F0E080818F7B80833F
S11309F0E5E9F0E080818F7B8083E6E9F0E08081A7
S1130A008F7B8083D9CE0E949B0501960E94A2050C
S1130A1085E991E00E9404020E949B050E94150250
S1130A2082E991E00E940402C7CE0E949B050197CF
S1130A300E94A2058AE891E00E9404020E949B059C
S1130A400E94150287E891E00E940402B5CE0E943C
S1130A50AE0501960E94C10581E891E00E9404025E
S1130A600E94AE050E9415028EE791E00E940402E6
S1130A70A3CE0E94AE0501970E94C10588E791E0CC
S1130A800E9404020E94AE050E94150285E791E0CF
S1130A900E94040291CEC2010E9404020E94A70592
S1130AA00E941502C1010E9404020E94BA050E941C
S1130AB0150283E691E00E9404027ECEC3010E94E7
S1130AC0040201E0EE24FF2477CEC4010E94040254
S1130AD002E0EE24FF2470CEE5E2F0E08081877F1F
S1130AE080830E940607C5010E94040265CEE5E2E8
S1130AF0F0E0808188608083C6010E9404025CCE9D
S1130B00982F97708091CC01882331F4E9EDF2E0BD
S1130B10E90FF11D84910895E1EEF2E0E90FF11D72
S1130B20849108958093270108958091CA010895BE
S1130B308093CA0108952091D3013091D401822F6A
S1130B40932F08959093D4018093D3010895209115
S1130B50DC013091DD01822F932F08952091CD0186
S1130B603091CE01822F932F08959093D0018093DA
S1130B70CF0108952091CF013091D001822F932F7E
S1130B80089523E0883E920738F088EE93E090932E
S1130B90CE018093CD0108958B30910538F48AE01D
S1130BA090E09093CE018093CD0108959093CE016F
S1130BB08093CD01089586E089BDE9E4F0E0808169
S1130BC080FFFDCF1092A3001092A2001092A90002
S1130BD01092A8001092AF001092AE008FEF93E035
S1130BE09093B3008093B2001092A1001092A000E1
S1130BF01092A7001092A6001092AD001092AC00C3
S1130C001092A5001092A4001092AB001092AA00BA
S1130C101092B1001092B000E5EBF0E08081808387
S1130C20808188608083808180618083E7EBF0E04D
S1130C30808180628083E8EBF0E08081806880833B
S1130C40E9EBF0E0808180688083EAEBF0E080816A
S1130C50806880830895AAECB1E0FD01119285E0DB
S1130C608083FD0132961082FD01339688EC90E07A
S1130C7091838083FD0135968CED95E0918380838B
S1130C80FD0137968CEB92E091838083FD013996C8
S1130C9091838083FD013B9680E991E09183808379
S1130CA0FD013D961082FD013E9611821082509600
S1130CB011961C921E920895282FEDECF1E080818C
S1130CC091819093A1008093A00080819181909361
S1130CD0AD008093AC00808191819093A7008093B4
S1130CE0A6001092AB001092AA001092A5001092D8
S1130CF0A4001092B1001092B00031978081882333
S1130D0051F5233021F1243030F4213061F02230C8
S1130D1009F048C018C0253051F0253060F0263065
S1130D2009F040C00CC081E28093B600089589E0C8
S1130D308093B600089588E18093B600089582E117
S1130D408093B600089586E08093B600089584E207
S1130D508093B6000895233011F1243028F4213013
S1130D6051F02230F9F417C0253049F0253058F0FD
S1130D702630C1F40CC082E18093B600089586E069
S1130D808093B600089584E28093B600089581E2CA
S1130D908093B600089589E08093B600089588E1B1
S1130DA08093B6000895ACECB1E08C9364E870E0F5
S1130DB0FB012081318115968D919C911197820FB1
S1130DC0931F90938900809388004FE650E0FA01C6
S1130DD0808182608083E6E3F0E0808184608083A8
S1130DE0FB01808191812D913C91820F931F0A9682
S1130DF090938B0080938A00FA01808184608083C1
S1130E00E7EBF0E08081816080830895EFE6F0E015
S1130E1080818D7F808380818B7F8083E7EBF0E00E
S1130E2080818E7F80831092CA010895EF92FF9291
S1130E300F931F9324EF8432920718F061E070E05F
S1130E4041C0009719F460E070E03CC07C0100E010
S1130E5010E0A801970161E070E0220F331F441FE6
S1130E60551F660F771F203788E3380789E3480743
S1130E7080E0580790F3DA01C901B695A7959795D4
S1130E808795769567958037E8E39E07E9E3AE0793
S1130E90E0E0BE07B8F4A8019701280F391F4A1FE4
S1130EA05B1F6F5F7F4F2E0D3F1D401F511FDA01E7
S1130EB0C9018E199F09A00BB10B80579843A94310
S1130EC0B04078F3862F972F1F910F91FF90EF90EA
S1130ED008951F93CF93DF93C0918400D091850030
S1130EE010B7809124010E9480051770811741F585
S1130EF080932401BE010E9477098091CA01853044
S1130F00D9F480912A0190912B019E01281B390B61
S1130F10C901969587958C0F9D1F909389008093A6
S1130F20880080912A0190912B019E01281B390B86
S1130F303093D9012093D801D0932B01C0932A0177
S1130F40DF91CF911F9108951F920F920FB60F92C8
S1130F5011242F933F934F935F936F937F938F93BA
S1130F609F93AF93BF93EF93FF930E946907FF9101
S1130F70EF91BF91AF919F918F917F916F915F910D
S1130F804F913F912F910F900FBE0F901F90189586
S1130F901F920F920FB60F9211242F933F934F93EA
S1130FA05F936F937F938F939F93AF93BF93EF93CD
S1130FB0FF930E946907FF91EF91BF91AF919F91B9
S1130FC08F917F916F915F914F913F912F910F90EE
S1130FD00FBE0F901F9018951F920F920FB60F928D
S1130FE011242F933F934F935F936F937F938F932A
S1130FF09F93AF93BF93EF93FF930E946907FF9171
S1131000EF91BF91AF919F918F917F916F915F917C
S11310104F913F912F910F900FBE0F901F901895F5
S11310201F920F920FB60F9211242F933F934F9359
S11310305F936F937F938F939F93AF93BF93EF933C
S1131040FF9320918400309185008091D801909184
S1131050D901820F931F90938B0080938A000E9482
S1131060B302843058F0E7EDF1E080818F5F808334
S11310708081823028F01092CA0102C01092D701F8
S1131080FF91EF91BF91AF919F918F917F916F915C
S11310905F914F913F912F910F900FBE0F901F9032
S11310A018951F920F920FB60F9211240F931F934E
S11310B02F933F934F935F936F937F938F939F935C
S11310C0AF93BF93EF93FF930BEC11E0F801808192
S11310D00E948005F801808380810E945C06015093
S11310E01040F8010081043018F00430B9F413C042
S11310F0A3EDB1E08D919C911197FD0192938293A0
S113110080819181969587959695879515961196E8
S11311109C938E9303C085E08093CA01E4E8F0E0D9
S1131120208131818091D3019091D401820F931F4A
S11311309093890080938800808191810596909393
S11311408B0080938A000E946C02EAE7F0E08081C1
S113115080618083808180648083FF91EF91BF915F
S1131160AF919F918F917F916F915F914F913F913B
S11311702F911F910F910F900FBE0F901F901895F4
S11311800E94C1090E941607ECEDF1E0918380836F
S1131190DF011D972D913C9180819181281B390B92
S11311A083E0293E380714F028EE33E0A901559571
S11311B0479555954795EDECF1E0808191813D96F9
S11311C02081318151834083359527953595279525
S11311D035952795821B930B5595479555954795BE
S11311E0840F951F0E94C1050895DF93CF9300D00B
S11311F000D0CDB7DEB7CE0101960E949002809157
S1131200CA01823009F1833018F4882339F04DC0C3
S1131210833091F1853009F048C045C080912701A1
S1131220882309F042C080912801909129010196F8
S113123090932901809328018F709070892BA9F5D0
S113124082E08093CA0131C0E0E5F0E080818067EC
S11312508083E4E9F0E0808180648083E5E9F0E064
S1131260808180648083E6E9F0E08081806480830B
S113127083E08093CA0119C00E94C1099C01809136
S1131280D1019091D201880F991F880F991F2817B7
S1131290390758F0880F991F8217930730F084E0BC
S11312A08093CA0102C00E94C0080F900F900F9053
S11312B00F90CF91DF91089582E08093DE0120E0CA
S11312C030E04EED51E0C901880F991FFA01E80F93
S11312D0F91FDF01119611961C921E9271961182CC
S11312E010822F5F3F4F2830310569F70895AEED26
S11312F0B1E04C9150E02C9130E0220F331FFD01FE
S1131300E20FF31F319620813181FB01E21BF30BC5
S11313109F01440F551FFD01E40FF51F71963183A2
S113132020832C9130E0220F331FFD01E20FF31FC5
S11313303196718360838C93919611967C936E930E
S113134081E008950E945C090895CF93DF93E4E956
S1131350F0E086E88083A5E9B0E08C9326E930E0EC
S1131360E901888380818083808180838C918C9340
S11313708C918C938881888388818883DF91CF9135
S113138008950F931F93A1EFB1E0FD018191919115
S113139000811181FD01349660817181FD013696D1
S11313A040815181FD01389620813181800F911F48
S11313B0860F971F840F951F820F931FFD013A9686
S11313C020813181280F391F53978C9190E0880F29
S11313D0991FA80FB91F51968D919C91880F991F41
S11313E0280F391F369527953695279536952795D5
S11313F0822F932F1F910F9108950895E4E4F0E054
S11314002081226020832EE327BDEEE6F0E02081D8
S113141022602083E82FF92FF0930202E093010267
S113142011821082E0910102F09102021382128271
S1131430E5E4F0E080818360808308951F920F9239
S11314400FB60F9211248F939F93EF93FF93E09124
S11314500102F091020280819181892B29F080811F
S11314609181019791838083E0910102F0910202BE
S113147082819381892B29F08281938101979383BF
S11314808283FF91EF919F918F910F900FBE0F90E8
S11314901F901895AA1BBB1B51E107C0AA1FBB1FB5
S11314A0A617B70710F0A61BB70B881F991F5A95EC
S11314B0A9F780959095BC01CD010895F894FFCFCC
S11314C03031323334353637383941424344454676
S11314D0000000000000000056302E353537616CE6
S10914E0706861000500C4
S9030000FC
