:100000000C9465000C94C3040C949F040C947B0422
:100010000C9482000C9482000C9482000C94820058
:100020000C9482000C9482000C9482000C94820048
:100030000C9428050C94E7040C9482000C94F506AB
:100040000C9482000C9482000C9482000C94820028
:100050000C9482000C9482000C9482000C94820018
:100060000C9482000C9482000C9482000C94B001D9
:100070000C9482000C9482000C9482000D00202FBE
:10008000205345543A200052504D3A2000456E61AD
:10009000626C652055415254206F75747075742ED2
:1000A0000D0A0044697361626C6520554152542009
:1000B0006F75747075742E0D0A00FF050301060438
:1000C00002FFFF030602050104FF11241FBECFEF4C
:1000D000D8E0DEBFCDBF11E0A0E0B1E0E0E9F0E1A3
:1000E00002C005900D92AA31B107D9F711E0AAE13B
:1000F000B1E001C01D92A73FB107E1F70E94840063
:100100000C9446080C9400002F923F924F925F92FD
:100110006F927F928F929F92AF92BF92CF92DF9217
:10012000EF92FF920F931F93CF93DF930E941302DE
:100130000E944E02E4E2F0E0808180618083E5E28B
:10014000F0E080818F7E80830E94E501EAE7F0E0A5
:100150008081806480830E9458070E94B2020E94BE
:100160007C060E94020380E291E00E94D506E1E84D
:10017000F0E0808183608083789426E0E2E2F1E021
:1001800040EA5FE080819181892BE1F751834083D0
:1001900021502130B9F70E9402030E947906E5E25E
:1001A000F0E080818860808380E00E94AA0380EE76
:1001B00080937C0010E00F2EFDE84F2EF0E05F2EC4
:1001C000F02D0F2EF3EA2F2EF0E03F2EF02D0F2E04
:1001D000F0E2CF2EF1E0DF2EF02D0F2EF8E28F2E81
:1001E0009924F02D0F2EF9E76F2E7724F02D0AE0D9
:1001F000C5E2D0E00F2EF2E2EF2EF1E0FF2EF02D5F
:100200000F2EF0EDAF2EF7E0BF2EF02D0E94470726
:100210000E947707882319F411C00E947B070E946F
:1002200077078823D1F7112329F0C1010E94910794
:1002300010E004C0C2010E94910711E0F601808124
:100240009181892BD1F4918280820E94CC05F301A7
:100250008081809FC001112484529A4F0E948C0299
:100260000E946C02853029F48881806188838881AE
:1002700004C088818F7E88838881F7018081918185
:10028000892BC1F4B182A0821123A1F087E890E00C
:100290000E9491070E947E020E94DB078EE790E099
:1002A0000E9491070E9491020E94DB078CE790E078
:1002B0000E9491070E94D406A9CF10921A010895B6
:1002C000FC01108215820895DC01909179008C91D7
:1002D000FD01E80FF11D91838F5F83708C9308956A
:1002E000FC012281818190E0820F911D2381820F88
:1002F000911D2481820F911D9695879596958795DE
:100300000895EF92FF920F931F937C0104E211E096
:10031000C8010E947001F7018083C80106960E94FF
:100320007001F7018183C8010C960E947001F701EA
:100330008283C80142960E947001F70183831F9156
:100340000F91FF90EF90089580911A01843028F466
:10035000EAE7F0E080818064808380911A0108954B
:100360001F920F920FB60F9211242F933F934F932A
:100370005F936F937F938F939F93AF93BF93EF930D
:10038000FF9380911A0126E0829FC00111248C5DA9
:100390009E4F0E94640180911A01843028F480915C
:1003A0001A018F5F80931A01FF91EF91BF91AF9176
:1003B0009F918F917F916F915F914F913F912F917D
:1003C0000F900FBE0F901F9018950F931F93ECE79F
:1003D000F0E080818F6E8083EAE7F0E080818E68B4
:1003E0008083EBE7F0E080818083EFE7F0E08081BD
:1003F00083608083E6E7F0E080818069808304E2A7
:1004000011E0C8010E946001C80106960E946001C7
:10041000C8010C960E946001C80142960E946001CA
:100420001F910F910895CF93DF9344E250E088E04D
:10043000EA01888365E270E0FB0180818860808347
:10044000AAE2B0E08C9182608C932BE230E0E9016B
:1004500088818D7F8883E7E2F0E08081817F8083DF
:10046000EA018881836C88838081816080838C919C
:1004700081608C93FB0180818D738083E901888189
:1004800081608883E8E2F0E0808181608083FB0105
:10049000808181608083DF91CF910895E5E2F0E073
:1004A00080818068808380818F7780830895982FF2
:1004B000977080913E01882331F4EAEBF0E0E90F78
:1004C000F11D84910895E2ECF0E0E90FF11D8491B3
:1004D000089580931B01089580913C0108958093B5
:1004E0003C0108952091450130914601822F932FC0
:1004F00008959093460180934501089520914E01FF
:1005000030914F01822F932F089520913F01309118
:100510004001822F932F08959093420180934101CF
:1005200008952091410130914201822F932F089527
:1005300023E0883E920738F088EE93E090934001E4
:1005400080933F0108958B30910538F48AE090E064
:100550009093400180933F010895909340018093D0
:100560003F01089586E089BDE9E4F0E0808180FFE5
:10057000FDCF1092A3001092A2001092A900109239
:10058000A8001092AF001092AE008FEF93E090930E
:10059000B3008093B2001092A1001092A0001092BC
:1005A000A7001092A6001092AD001092AC0010921D
:1005B000A5001092A4001092AB001092AA00109215
:1005C000B1001092B000E5EBF0E080818083808183
:1005D00088608083808180618083E7EBF0E08081A8
:1005E00080628083E8EBF0E0808180688083E9EBC3
:1005F000F0E0808180688083EAEBF0E080818068B1
:1006000080830895ACE3B1E0FD01119285E0808321
:10061000FD0132961082FD01339688EC90E09183C3
:100620008083FD0135968CED95E091838083FD01FB
:1006300037968CEB92E091838083FD01399691830C
:100640008083FD013B9680E991E091838083FD01E9
:100650003D961082FD013E961182108250961196B1
:100660001C921E920895282FEFE3F1E08081918182
:100670009093A1008093A000808191819093AD0020
:100680008093AC00808191819093A7008093A60015
:100690001092AB001092AA001092A5001092A40034
:1006A0001092B1001092B00031978081882351F5EB
:1006B000233021F1243030F4213061F0223009F070
:1006C00048C018C0253051F0253060F0263009F0C0
:1006D00040C00CC081E28093B600089589E0809309
:1006E000B600089588E18093B600089582E1809372
:1006F000B600089586E08093B600089584E2809362
:10070000B6000895233011F1243028F4213051F03F
:100710002230F9F417C0253049F0253058F0263042
:10072000C1F40CC082E18093B600089586E0809306
:10073000B600089584E28093B600089581E2809324
:10074000B600089589E08093B600089588E180930B
:10075000B6000895AEE3B1E08C9364E870E0FB016D
:100760002081318115968D919C911197820F931F55
:1007700090938900809388004FE650E0FA018081D1
:1007800082608083E6E3F0E0808184608083FB0107
:10079000808191812D913C91820F931F0A969093B5
:1007A0008B0080938A00FA01808184608083E7EB6C
:1007B000F0E08081816080830895EFE6F0E0808141
:1007C0008D7F808380818B7F8083E7EBF0E0808169
:1007D0008E7F808310923C010895EF92FF920F93D9
:1007E0001F9324EF8432920718F061E070E041C05B
:1007F000009719F460E070E03CC07C0100E010E07C
:10080000A801970161E070E0220F331F441F551FBC
:10081000660F771F203788E3380789E3480780E0B1
:10082000580790F3DA01C901B695A7959795879572
:10083000769567958037E8E39E07E9E3AE07E0E049
:10084000BE07B8F4A8019701280F391F4A1F5B1F84
:100850006F5F7F4F2E0D3F1D401F511FDA01C901F1
:100860008E199F09A00BB10B80579843A943B04044
:1008700078F3862F972F1F910F91FF90EF90089597
:100880001F93CF93DF93C0918400D091850010B760
:10089000809100010E9457021770811741F58093E3
:1008A0000001BE010E944E0680913C018530D9F4C2
:1008B00080911E0190911F019E01281B390BC901D7
:1008C000969587958C0F9D1F909389008093880043
:1008D00080911E0190911F019E01281B390B3093BE
:1008E0004B0120934A01D0931F01C0931E01DF9159
:1008F000CF911F9108951F920F920FB60F9211245E
:100900002F933F934F935F936F937F938F939F9317
:10091000AF93BF93EF93FF930E944004FF91EF9139
:10092000BF91AF919F918F917F916F915F914F9107
:100930003F912F910F900FBE0F901F9018951F920F
:100940000F920FB60F9211242F933F934F935F9303
:100950006F937F938F939F93AF93BF93EF93FF9387
:100960000E944004FF91EF91BF91AF919F918F91B1
:100970007F916F915F914F913F912F910F900FBE9B
:100980000F901F9018951F920F920FB60F9211247F
:100990002F933F934F935F936F937F938F939F9387
:1009A000AF93BF93EF93FF930E944004FF91EF91A9
:1009B000BF91AF919F918F917F916F915F914F9177
:1009C0003F912F910F900FBE0F901F9018951F927F
:1009D0000F920FB60F9211242F933F934F935F9373
:1009E0006F937F938F939F93AF93BF93EF93FF93F7
:1009F000209184003091850080914A0190914B01B3
:100A0000820F931F90938B0080938A000E94A40111
:100A1000843058F0E9E4F1E080818F5F8083808149
:100A2000823028F010923C0102C010924901FF91DF
:100A3000EF91BF91AF919F918F917F916F915F9156
:100A40004F913F912F910F900FBE0F901F901895CF
:100A50001F920F920FB60F9211240F931F932F9393
:100A60003F934F935F936F937F938F939F93AF9336
:100A7000BF93EF93FF930DE311E0F80180810E9493
:100A80005702F801808380810E9433030150104097
:100A9000F8010081043018F00430B9F413C0A5E463
:100AA000B1E08D919C911197FD0192938293808189
:100AB00091819695879596958795159611969C9315
:100AC0008E9303C085E080933C01E4E8F0E0208150
:100AD00031818091450190914601820F931F90933F
:100AE00089008093880080819181059690938B0086
:100AF00080938A000E945D01EAE7F0E080818061D6
:100B00008083808180648083FF91EF91BF91AF915A
:100B10009F918F917F916F915F914F913F912F9115
:100B20001F910F910F900FBE0F901F9018950E946C
:100B300098060E94ED03EEE4F1E091838083DF01EB
:100B40001D972D913C9180819181281B390B83E069
:100B5000293E380714F028EE33E0A9015595479552
:100B600055954795EFE3F1E0808191813D96208195
:100B70003181518340833595279535952795359556
:100B80002795821B930B5595479555954795840F4F
:100B9000951F0E9498020895DF93CF9300D000D054
:100BA000CDB7DEB7CE0101960E94810180913C0154
:100BB000823009F1833018F4882339F04DC0833036
:100BC00091F1853009F048C045C080911B01882310
:100BD00009F042C080911C0190911D0101969093F3
:100BE0001D0180931C018F709070892BA9F582E004
:100BF00080933C0131C0E0E5F0E080818067808334
:100C0000E4E9F0E0808180648083E5E9F0E08081C0
:100C100080648083E6E9F0E080818064808383E003
:100C200080933C0119C00E9498069C018091430169
:100C300090914401880F991F880F991F2817390731
:100C400058F0880F991F8217930730F084E0809343
:100C50003C0102C00E9497050F900F900F900F90DB
:100C6000CF91DF91089582E08093500120E030E041
:100C700040E551E0C901880F991FFA01E80FF91FFB
:100C8000DF01119611961C921E92719611821082AC
:100C90002F5F3F4F2830310569F70895A0E5B1E097
:100CA0004C9150E02C9130E0220F331FFD01E20FF8
:100CB000F31F319620813181FB01E21BF30B9F0171
:100CC000440F551FFD01E40FF51F719631832083FA
:100CD0002C9130E0220F331FFD01E20FF31F3196FC
:100CE000718360838C93919611967C936E9381E0CF
:100CF00008950E9433060895CF93DF93E4E9F0E06E
:100D000086E88083A5E9B0E08C9326E930E0E9012C
:100D1000888380818083808180838C918C938C9167
:100D20008C938881888388818883DF91CF9108950F
:100D30000F931F93A3E6B1E0FD0181919191008192
:100D40001181FD01349660817181FD0136964081EB
:100D50005181FD01389620813181800F911F860FCE
:100D6000971F840F951F820F931FFD013A962081D4
:100D70003181280F391F53978C9190E0880F991F6C
:100D8000A80FB91F51968D919C91880F991F280F1C
:100D9000391F369527953695279536952795822FB5
:100DA000932F1F910F9108950895E4E4F0E02081BE
:100DB000226020832EE327BDEEE6F0E02081226052
:100DC0002083E82FF92FF0937401E09373011182CF
:100DD0001082E0917301F091740113821282E5E4B4
:100DE000F0E080818360808308951F920F920FB698
:100DF0000F9211248F939F93EF93FF93E0917301D0
:100E0000F091740180819181892B29F080819181F9
:100E1000019791838083E0917301F0917401828145
:100E20009381892B29F08281938101979383828317
:100E3000FF91EF919F918F910F900FBE0F901F9098
:100E40001895FC01108211820895FC01218130E087
:100E50008081281B31092F773070822F932F0895BE
:100E6000DC0111968C911197FD01E80FF11D628351
:100E70008F5F8F7711968C930895DC019C91FD0113
:100E8000E90FF11D82819F5F9F779C93089585E70D
:100E900091E00E942507892B51F08091C90081FFC4
:100EA00006C085E791E00E943D078093D200089537
:100EB000E8ECF0E090818081877F808388E88093F0
:100EC000CC001092CE008FEC8093CD0090838FE009
:100ED00080838FEF8093D20085E791E00E94210705
:100EE0000895682F85E791E00E943007089580916A
:100EF000C900817008950E9477078823E1F38091EB
:100F0000D2000895CF93DF93EC018881882331F0DC
:100F10000E947107219688818823D1F7DF91CF91B4
:100F20000895CF93DF93EC01FC018491882339F07D
:100F30000E9471072196FE0184918823C9F7DF91F1
:100F4000CF910895EF92FF920F93DF93CF93CDB798
:100F5000DEB763970FB6F894DEBF0FBECDBF082F84
:100F6000DE011196E1E0F1E081E101900D92815006
:100F7000E1F7802F82958F707E010894E11CF11CAF
:100F8000F701E80FF11D80810E947107802F8F709B
:100F90009701280F311DF90180810E947107639626
:100FA0000FB6F894DEBF0FBECDBFCF91DF910F918A
:100FB000FF90EF900895EF92FF920F931F93DF93AE
:100FC000CF9300D000D000D0CDB7DEB79C01009702
:100FD00021F480E30E94710738C0DE011196E2E13E
:100FE000F1E086E001900D928150E1F7EE24FF24BC
:100FF0008E010F5F1F4FF801EE0DFF1DC9016AE062
:1010000070E00E94320880830894E11CF11CC90141
:101010006AE070E00E943208862F972F9C0121150C
:10102000310549F71E141F0484F48E010E0D1F1D97
:101030000894E108F108F8018081805D0E94710741
:10104000015010401E141F049CF326960FB6F8940E
:10105000DEBF0FBECDBFCF91DF911F910F91FF90EB
:10106000EF900895AA1BBB1B51E107C0AA1FBB1F2D
:10107000A617B70710F0A61BB70B881F991F5A9524
:10108000A9F780959095BC01CD010895F894FFCF04
:1010900005303132333435363738394142434445EF
:1010A00046000000000000000000FFFFFFFFFFFF00
:1010B000FFFFFFFFFFFFFFFFFFFFFFFFFFFFFFFF40
:1010C000FFFFFFFFFFFFFFFFFFFFFFFFFFFFFFFF30
:1010D000FFFFFFFFFFFFFFFFFFFFFFFFFFFFFFFF20
:1010E000FFFFFFFFFFFFFFFFFFFFFFFFFFFFFFFF10
:00000001FF
